:020000040800F2
:1000000000500020E90C0008850C0008870C00084F
:10001000890C00088B0C00088D0C00080000000003
:100020000000000000000000000000008F0C00082D
:10003000910C000800000000930C0008950C0008CB
:10004000310D0008310D0008310D0008310D000898
:10005000310D0008310D0008310D0008310D000888
:10006000310D0008310D0008310D0008310D000878
:10007000310D0008310D0008310D0008310D000868
:10008000310D0008310D0008310D0008310D000858
:10009000990C0008310D0008310D0008310D0008E1
:1000A000310D0008310D0008310D0008310D000838
:1000B000310D0008310D0008310D0008310D000828
:1000C000310D0008310D0008310D0008310D000818
:1000D000310D0008310D0008310D0008310D000808
:1000E000310D0008310D0008310D0008000000003E
:1000F0000000000000000000000000000000000000
:0C01000000000000000000005FF808F1A3
:10010C0010B5054C237833B9044B13B10448AFF345
:10011C0000800123237010BD70000020000000003F
:10012C00502C000808B5034B1BB103490348AFF32F
:10013C00008008BD0000000074000020502C000856
:10014C00034613F8012B002AFBD1181A013870470B
:10015C0070B5094E0A44082411F8013B4340DBB248
:10016C0043F300053540013C85EA5303F8D18A423C
:10017C0083EA1020EFD170BD2083B8ED074A084BFD
:10018C0011680B40B3F1005F06D150680138C31CF5
:10019C008CBF0020012070470020704700400008F1
:1001AC000000FE2F38B572B600224FF0FF319300DD
:1001BC0003F16043013203F56143082AC3F8801050
:1001CC00C3F88011F3D1184800F05CFF174802F017
:1001DC0006F8174B9A6922F004029A619A6922F088
:1001EC0008029A619A6922F010029A619A6922F0C7
:1001FC0020029A6101F040FC00F096FD4FF0E023E4
:10020C0000221A615A619A610A4B0B4A4FF4005151
:10021C0093600A480122D3E9004501F01FFC84F3E6
:10022C00088862B6284738BD00250020B824002075
:10023C00001002400040000800ED00E000100140FA
:10024C000FB400B5A3B024AB53F8042B802102A843
:10025C00019302F05BF802A8FFF772FF4FF0FF3337
:10026C0082B202A9034801F0D4FF23B05DF804EB7D
:10027C0004B07047B824002070B50E4B0E4E1A888F
:10028C00338892B29BB29A42044611D0242233880E
:10029C000A4D9BB202FB03550FCD0FC40FCD0FC4FB
:1002AC0001202B68236033880133DBB2338070BDAF
:1002BC000020FCE78E0000208C0000209000002025
:1002CC00002370B588B00D46CDE904330290069238
:1002DC0000F07CFD04460C4E00F078FD031B022B55
:1002EC0001D903200DE0304600F029FF08B900BF0A
:1002FC00F2E72A46304601AB02A900F0D7FE0028EF
:10030C00F5D108B070BD00BF00250020AA2307B5A9
:10031C00012240F201100DF107018DF80730FFF7B3
:10032C00CFFF30B1012240F201100DF10701FFF7B0
:10033C00C7FF03B05DF804FB38B5194C2378022BCA
:10034C0016D100F043FD174B1B68C01A00280FDBB9
:10035C004FF4FA720125144B25701A6000F036FD2B
:10036C00124B2A4618604FF40051114801F076FBED
:10037C002378012B02D02378022B0FD100F026FD1D
:10038C000A4D094A2B681268C31A9342044605D3D6
:10039C004FF40051064801F066FB2C6038BD00BFDD
:1003AC000C000020B024002008000020B424002001
:1003BC0000100140F0B58BB001AB03AA0021144E24
:1003CC0000F0D1FE134A33881288013392B203F045
:1003DC00FF0393421AD04FF0240C34880E4FA4B272
:1003EC000CFB047403AD0FCD0FC495E8070084E833
:1003FC0007003388079A9BB20CFB037001A91C30D1
:10040C0001F0C6FF33880133DBB233800BB0F0BD93
:10041C008E0000208C0000209000002010B590B0C1
:10042C001422002108A801F07FFF1422002101A84A
:10043C0001F07AFF02244FF480330122CDE90D4301
:10044C00CDE906234FF4E01306A80A920F9301F0AE
:10045C007FFB08B172B6FEE70F23CDE901344FF4F0
:10046C0080630390CDE90430214601A801F032FDF0
:10047C0008B172B6FEE710B010BD00002DE9F04FC8
:10048C000226A44D97B000F083FCFFF7C7FFAB69C1
:10049C00A14C43F02003AB61AB694FF4702203F025
:1004AC0020030193019BAB69204643F00403AB612D
:1004BC00AB6903F004030293029B984BC4E900362A
:1004CC000023C4E904234FF08072C4E90233A383F0
:1004DC00A26100F093FC034608B172B6FEE74FF43C
:1004EC00E1328F488F494FF01008C0E900120C22FE
:1004FC00C0E90233C0E905230361C0F81C8001F098
:10050C003FFE814608B172B6FEE7AB694FF4005767
:10051C0043F01003AB61AB69012503F010030093AA
:10052C000E900CA98048009B0F96CDE90C7501F03C
:10053C0053F939462A467C4801F090FA7B4B7C4AA9
:10054C001D704FF4FA73136000F040FC794B2A468F
:10055C0018603946744801F081FA242249460DA8E6
:10056C0001F0E2FE4FF6E07320460CA90C930E93BB
:10057C00CDE9135500F0BDFC20460CA911950C9744
:10058C0000F0B7FC4FF6C0730CA920460C931196E3
:10059C0000F0AFFC204600F01CFD3146204600F078
:1005AC005EFE654A41466548FFF74AFE08216448ED
:1005BC00FFF746FE00F00AFC624E00F59C54DFF893
:1005CC008891083400F002FCA04264D23378002BEE
:1005DC0061D140F2FF780BE00C9B434508D1109B96
:1005EC00082B02D1139B4B450AD05848FFF728FE25
:1005FC000CA8FFF741FE0028EED1FFF79DFEE1E7C6
:10060C004FF0000A4FF0FF310127514B514A1B8824
:10061C00514D9BB21380514BDFF81CB1C3F800A0B5
:10062C004F4BC3F800A04F4B83F800A04E4B83F800
:10063C0000A0149B2B604D4B19604D4BC3F800A0D0
:10064C004C4BC3F800B03770FFF760FE0323374AFA
:10065C004FF4005113703448524601F0FFF900F08A
:10066C00BDFF302303A904A80793CDE904AACDF854
:10067C0018B001F05DF800F0C3FFAC2304A93A46B2
:10068C0040F201108DF81030FFF71AFE29683A4835
:10069C00FFF7D6FDACE7337893B9FFF76FFD78B170
:1006AC003648FFF7CDFD1E2000F096FBFFF77AFDD4
:1006BC002D4D0CA8FFF7E0FD48B9FFF73DFEF8E71C
:1006CC003378002BF4D12E48FFF7BAFDF0E70C9BE2
:1006DC00B3F5807F40F0EC801A4B1B78002BE8D0F0
:1006EC004FF00208114B124A83F800806423136008
:1006FC0000F06CFB0F4B186000F068FB214B00F511
:10070C0096701860109B012B40D81F48FFF798FD7E
:10071C00CFE700BF0010024000250020006400401D
:10072C00B824002000380140001001400C000020CB
:10073C0008000020B424002000400008682C0008A9
:10074C00992C0008AC24002053544152A72C0008CB
:10075C008E0000208C000020A82400209C24002067
:10076C0098240020952400209024002000000020D4
:10077C00A024002004000020BF2C0008D32C00086B
:10078C00F12C0008B0240020112D0008B04FB14C02
:10079C003878BDF84C102268002859D0914288D185
:1007AC000021AD48397001600132AC4F2260AC4A77
:1007BC00396812688A4265D9DBB29C1EE4B2062CF9
:1007CC0028BF0624521A94425AD3D4B200F006FF22
:1007DC004FF00008DFF88CB2DFF88C920DF14D0A67
:1007EC002A781AF8011F531CDBB2042B2B700BF860
:1007FC0002100ED10023DBF800200220D9F80010E3
:10080C0000F032FF0023D9F800202B700432C9F815
:10081C00002008F101084445E2D8DFF8508200F0CE
:10082C00EFFE2246D8F800000DF14E01FFF790FCC8
:10083C003B68C8F800001C44894B3C60196809B33C
:10084C0064235C438A48B4FBF1F1FFF7F9FC19E02F
:10085C009142A9D08748FFF7F3FC2388D4F8009085
:10086C00424604A94FF48170ADF81030FFF728FD13
:10087C0081481FFA89F1FFF7E3FC01233B7018E76D
:10088C00022BA3D1724B1B78002B7FF412AF724C4E
:10089C0023680133072B236005D8714B3A681B681A
:1008AC009A42FFF406AFFFF731FD0023236000E707
:1008BC0040F2FE7293427FF4FCAE704B1B78002B1F
:1008CC003FF4F7AE109B082B03D1139B6C4A934259
:1008DC0001D06C481AE7149BDFF8AC81C8F80030E3
:1008EC002B780BB300211A460C46DFF8789103EBFA
:1008FC000900032A76D931B1042BC3F1040288BF55
:10090C00002213442B700027574C00F067FE3B4627
:10091C002168D9F80020022000F0A6FE23680433D9
:10092C00236000F06DFE2F70002758483770FFF7DA
:10093C0087FC4B4CDFF858912368BB420AD907F16E
:10094C00006303F58043484619780137FFF778FCBC
:10095C00202FF1D14F48FFF773FC2368DFF830A14B
:10096C00202B38BF20239946A3F120072368BB42D4
:10097C000AD907F1006303F5804350461978013713
:10098C00FFF75EFCB945F1D14348FFF759FCDFF89E
:10099C00CC90364AD9F800301268D8F800103F488D
:1009AC00FFF74EFC27684FF0FF34DFF8F4A0FFB9D7
:1009BC0021463C48FFF744FC294BD9F800201B6822
:1009CC009A4229D1FFF7DAFB30B3D8F80030A342B2
:1009DC0022D13548FFF734FC1E2000F0FDF9FFF75B
:1009EC00E1FB66E60132012100F8014BD2B280E74F
:1009FC00202FBB4628BF4FF0200B51465A4604A867
:100A0C0001F0C6FC20465A4604A9FFF7A1FBDA44C4
:100A1C000446A7EB0B07CAE701242448FFF710FC98
:100A2C004FF400510122224801F018F8214B224AC0
:100A3C001C704FF4FA73136000F0C8F91F4B224678
:100A4C0018604FF400511A4801F008F831E600BF65
:100A5C00952400209C24002098240020A024002011
:100A6C00A824002091240020040000200000002075
:100A7C00592D00081F2D0008432D0008AC24002020
:100A8C00454E44006B2D0008A4240020812D000845
:100A9C00892D00088E2D0008682D0008982D00085F
:100AAC0000400008CB2D0008E52D0008F22D0008B1
:100ABC00001001400C00002008000020B42400208D
:100ACC000E4B82B09A6942F001029A619A6902F067
:100ADC0001020092009ADA6942F08052DA61DB6915
:100AEC00074A03F080530193019B536823F0E063A2
:100AFC0043F00073536002B0704700BF0010024017
:100B0C000000014010B5044686B01022002102A856
:100B1C0001F00AFC22681E4B9A4236D103F5D633FB
:100B2C00DA691C4842F00072DA61DA6902A902F053
:100B3C0000720092009A9A6942F008029A619B69CD
:100B4C0003F008030193019B4FF48073029300F0B0
:100B5C0043FE4FF400720223CDE9022303230D4818
:100B6C0002A9059300F038FE0B4A1420536823F4B5
:100B7C00C04343F0E06343F48043536000221146CA
:100B8C0000F0A0FC142000F0CDFC06B010BD00BF9E
:100B9C0000640040000C01400000014008B50268F0
:100BAC00094B9A420ED1094A0948D3694FF4407156
:100BBC0023F00073D36100F0E3FEBDE8084014207D
:100BCC0000F0BEBC08BD00BF006400400010024035
:100BDC00000C014010B5044686B01022002102A87A
:100BEC0001F0A2FB2268174B9A4228D103F5584317
:100BFC009A69154842F480429A619A6902A902F4F2
:100C0C0080420092009A9A6942F004029A619B69B0
:100C1C004FF4007203F004030193019B0223CDE90E
:100C2C0002230323059300F0D7FD4FF480610023CA
:100C3C000548CDE9021302A9049300F0CDFD06B0DE
:100C4C0010BD00BF00380140000801400268074B8E
:100C5C009A4209D1064A4FF4C0619369054823F4BE
:100C6C008043936100F08CBE704700BF0038014098
:100C7C000010024000080140FEE7FEE7FEE7FEE739
:100C8C00FEE770477047704700F094B8014800F0D9
:100C9C0003BB00BF002500200B4A0346116810B5AA
:100CAC0009B90A491160106809490A4C0344091B27
:100CBC008B4206D901F040FB0C2303604FF0FF3050
:100CCC0010BD1360FCE700BF2825002098260020EB
:100CDC00005000200004000070470000FFF7FCFFEC
:100CEC000B480C490C4A002302E0D458C45004337E
:100CFC00C4188C42F9D3094A094C002301E0136053
:100D0C000432A242FBD301F01DFBFFF7B7FB704787
:100D1C00000000206C0000207C2E000870000020D9
:100D2C0098260020FEE7704710B54FF0FF320024E4
:100D3C00044B1A611C61DA60DC60FFF7F4FF20469B
:100D4C0010BD00BF0010024038B50E4B05461A7896
:100D5C004FF47A73B3FBF2F30B4A1068B0FBF3F069
:100D6C0000F000FC044658B90F2D09D8024629465C
:100D7C004FF0FF3000F0A6FB2046044B1D6038BD41
:100D8C000120FCE7140000201000002018000020B7
:100D9C00074A08B51368032043F01003136000F0F2
:100DAC007FFB0F20FFF7D0FFFFF78AFE002008BD66
:100DBC0000200240034A044B11681B780B4413605B
:100DCC00704700BF2C25002014000020014B186830
:100DDC00704700BF2C25002038B50446FFF7F6FFFE
:100DEC000546631C1EBF044B1B78E418FFF7EEFF8F
:100DFC00431BA342FAD338BD1400002038B5044677
:100E0C0000286ED090F820300BB9FFF77BFE2268DB
:100E1C00136843F001031360FFF7D8FF05462368FE
:100E2C005A68D10751D51A6822F002021A60FFF7EE
:100E3C00CDFF054623685A68920754D4227E0020C1
:100E4C00012A1A680CBF42F0800222F080021A605C
:100E5C00627E012A1A680CBF42F0400222F0400266
:100E6C001A60A27E012A1A680CBF42F0200222F0FE
:100E7C0020021A60E27E012A1A680CBF22F01002CE
:100E8C0042F010021A60227F012A1A680CBF42F04D
:100E9C00080222F008021A60627F012A1A680CBF4D
:100EAC0042F0040222F004021A60D4E902210A433F
:100EBC0021690A4361690A43616801390A43DA61AD
:100ECC000123606284F820300CE0FFF77FFF401BA9
:100EDC000A28A4D9636A43F400336362052384F8B7
:100EEC002030012038BDFFF771FF401B0A28A1D923
:100EFC00F0E770B590F820200368013A012A62D817
:100F0C000120D3F8002242F00102C3F800224A6902
:100F1C00D3F81C5202F01F04A04025EA0005C3F8C8
:100F2C001C52CD69C44395BBD3F80C52CE682540F6
:100F3C00C3F80C528D8803EBC20245EA0645C2F891
:100F4C0040528E680D8845EA0645C2F844528A69BB
:100F5C007ABBD3F804222240C3F804220A6962BB8C
:100F6C00D3F814221440C3F814420A6A012A04BFAD
:100F7C00D3F81C2202434FF0000008BFC3F81C2218
:100F8C00D3F8002222F00102C3F8002270BD012D1B
:100F9C00DDD1D3F80C520E680543C3F80C528D8882
:100FAC0003EBC20245EA0645C2F840528E688D89B1
:100FBC00C9E7D3F804220243CEE7D3F81422024344
:100FCC00C3F81422D1E7436A43F48023436201201F
:100FDC00DCE738B590F820300446012B1FD10223F2
:100FEC00026880F82030136823F001031360FFF7C8
:100FFC00EDFE05462368586810F0010001D16062CF
:10100C0038BDFFF7E3FE401B0A28F3D9636A43F4AB
:10101C0000336362052384F820300120F0E7436A33
:10102C0043F400234362F8E738B590F820300446C7
:10103C00022B22D10268136843F001031360FFF7FF
:10104C00C5FE054623685A68D20708D51A680020E1
:10105C0022F002021A60012384F8203038BDFFF719
:10106C00B5FE401B0A28EDD9636A43F40033636272
:10107C00052384F820300120F0E7436A43F4801301
:10108C004362F8E710B5044670B1FFF7CDFF204678
:10109C00FFF784FD00202268136843F400431360BB
:1010AC00606284F8200010BD0120FCE7F0B590F8D8
:1010BC0020500468013D012DA6683CD816F0E05F75
:1010CC0033D00125C6F3016085401D60D1E902577C
:1010DC0000F1180315BB0D681B0147EA4557E75093
:1010EC0004EB0013050100200E692C44C3F8846145
:1010FC00097D012902BFD3F8841141F48071C3F832
:10110C0084115168C4F88C111268C4F88821D3F882
:10111C00802142F00102C3F88021F0BD4E683D43AE
:10112C0045EAC6051B01E550DAE7436A43F40013B0
:10113C0043620120F1E7436A43F48023F8E790F817
:10114C002030013B012B0CD8036898689A689B6887
:10115C001201C0F3806048BF0130DB0002D50130C2
:10116C00704700207047F0B590F82040013C012CEE
:10117C0071D8066841B9F468A40707D1436A43F4EF
:10118C00001343620120F0BD3469F5E706EB01154D
:10119C00D5F8B0710C0107F004079760002F50D1FF
:1011AC00D5F8B0717F0D1760D5F8B071264407F0F3
:1011BC000207D760D5F8B4713F074EBF0827D5F8A2
:1011CC00B47107F00F071761D5F8B471D5F8B451A5
:1011DC00C7F307272D0C97615561D6F8B8211A7003
:1011EC0002682244D2F8B821120A5A7002682244CA
:1011FC00D2F8B821120C9A7002682244D2F8B821A5
:10120C00120EDA7002682244D2F8BC211A710268FC
:10121C002244D2F8BC21120A5A7102682244D2F834
:10122C00BC21120C9A7102682244D2F8BC21120E15
:10123C00DA71036851B9DA6842F02002DA600020F2
:10124C00A1E7D5F8B071FF085760ADE71A6942F015
:10125C0020021A61F3E7436A43F4802391E790F884
:10126C002030013B012B05D802680020536919433B
:10127C0051617047436A43F48023436201207047F5
:10128C00704770477047704770477047704770479A
:10129C0070477047704770472DE9F84F0368054653
:1012AC005E69D3F8049016F00104D3F80880D3F8E3
:1012BC000CB0D3F810A09F6927D018F0010F07D0FD
:1012CC00012218F0020F9A6000F0A580FFF7D8FFFA
:1012DC00002418F4807F0AD04FF480722B6818F425
:1012EC00007F9A6000F0A6802846FFF7CAFF18F42A
:1012FC00803F0AD04FF480322B6818F4003F9A607C
:10130C0000F0A8802846FFF7BDFF310707D51BF07A
:10131C00100F1FBF10222B6844F40074DA607207A0
:10132C0008D51BF0080F05D008222B682846DA6078
:10133C00FFF7ACFFB30706D52B68DB68980702D024
:10134C002846FFF737F8710607D51AF0100F1FBFA4
:10135C0010222B6844F480641A61B20608D51AF086
:10136C00080F05D008222B6828461A61FFF790FF5A
:10137C00F30606D52B681B69980702D02846FFF7A1
:10138C0086FFB10308D519F0100F05D010222B6879
:10139C0028465A60FFF77DFFF20308D519F0080FB5
:1013AC0005D008222B6828465A60FFF773FF3304D8
:1013BC0028D519F0040F2A6822D0F00544BF07F095
:1013CC0001031C43B10503D5BB0748BF44F002041D
:1013DC00700503D5790748BF44F0040433050FD5D5
:1013EC0017F070030CD0402B54D043D8202B4BD08B
:1013FC00302B4CD0102B44D0936923F070039361A5
:10140C00042353602CB16B6A284623436B62FFF7AD
:10141C0042FFBDE8F88F18F0040F05D118F0080F43
:10142C0005D1FFF730FF53E74FF4006451E74FF459
:10143C0080544EE718F4806F02D044F4005456E701
:10144C0018F4006F02D044F4804450E72846FFF7AC
:10145C001BFF4CE718F4802F02D044F4004454E7EF
:10146C0018F4002F02D044F480344EE72846FFF7DE
:10147C000CFF4AE7502B10D0602BBDD144F4807484
:10148C00BAE744F00804B7E744F01004B4E744F0BA
:10149C002004B1E744F04004AEE744F08004ABE72D
:1014AC0007490302CA6803F4E06322F4E062120401
:1014BC00120C134343F0BF6343F40033CB6070470B
:1014CC0000ED00E0154B30B5DC68C4F30224C4F128
:1014DC000703251D042B28BF0423062D4FF0FF35D1
:1014EC0094BF0024033C05FA03F321EA0303A5404F
:1014FC0022EA0502A340002843EA0203ACBF00F134
:10150C006040074A4FEA0313DBB2ABBF00F5614002
:10151C0000F00F0080F80033135430BD00ED00E0F4
:10152C0014ED00E0002807DB01234109034A00F019
:10153C001F00834042F82130704700BF00E100E0FB
:10154C0000280CDB01220649430900F01F008240F1
:10155C00203341F82320BFF34F8FBFF36F8F7047B9
:10156C0000E100E00138B0F1807F0BD24FF0E023B6
:10157C00F021054A586182F8231000200722986157
:10158C001A6170470120704700ED00E0114AD368E2
:10159C0013F0100305D01049CB6943F00203CB6163
:1015AC001023D268500706D50B4943F00403CA69CF
:1015BC0042F00102CA61074AD169C90708D5064839
:1015CC00C16941F00401C161D16921F00101D1610E
:1015DC00D36070470020024030250020064B18696C
:1015EC0010F0800007D0054A5A6002F188325A6028
:1015FC001869C0F3C01070470020024023016745F2
:10160C00034A0020136943F080031361704700BF45
:10161C000020024070B50546FFF7D8FB0646114C7A
:10162C00E368D80712D4E368990644BF2023E3602B
:10163C00E368DA0606D4E369DB0703D4E06810F04C
:10164C00040007D0FFF7A2FF012003E06B1CE7D0DA
:10165C000DB9032070BDFFF7B9FB801BA842DFD981
:10166C00F7E700BF002002402DE9F84FDFF894A007
:10167C001F469AF818300546012B884691463FD0F4
:10168C0001234CF250308AF81830FFF7C3FF90BB9F
:10169C00012D03D0022D14BF04250225002633464C
:1016AC00DFF864B03401C4F12001A4F1200207FA80
:1016BC0001F129FA04F4CAF81C300C4327FA02F29F
:1016CC001443DBF81020A4B242F00102CBF8102036
:1016DC004CF2503028F81640FFF79CFFDBF8102036
:1016EC0022F00102CBF8102028B90136F2B2954253
:1016FC004FF00003D6D800238AF81830BDE8F88FD5
:10170C000220FBE730250020002002400022064B7F
:10171C00DA61064B1A6942F002021A6158611A69C1
:10172C0042F040021A617047302500200020024030
:10173C002DE9F041264F05463B7E8846012B44D0CF
:10174C0001243C7603684CF25030022B1AD1FFF77F
:10175C0061FF20B1012000233B76BDE8F0811D4CD8
:10176C00F86123694CF2503043F004032361236980
:10177C0043F040032361FFF74DFF236923F004037B
:10178C002361E8E7FFF746FF0028E3D14FF0FF3372
:10179C00C8F800302046AE680E4CD5E9023203EB97
:1017AC008223B342D7D93046FFF7B0FF4CF250300A
:1017BC00FFF730FF236923F00203236110B1C8F84F
:1017CC000060C8E706F58066E7E70220C5E700BFC2
:1017DC0030250020002002402DE9F74F00244FF067
:1017EC000F0E2646DFF884C1614B00F104080A682D
:1017FC0032FA06F502D103B0BDE8F08F012505FAE7
:10180C0006F702EA070537EA020276D14A68032A8C
:10181C0007D8013A022A00F28380DFE802F09196A1
:10182C009C00122A00F0948069D8112A00F08A805A
:10183C00FF2D94BF8146C1464FEA8602D9F800704D
:10184C0088BF203A0EFA02FA27EA0A0704FA02F2D3
:10185C001743C9F80070D1F8049019F0805F4CD090
:10186C00DCF8182026F0030742F00102CCF818200F
:10187C00DCF8182007F1804702F00102019207F50D
:10188C00803706F0030A019A4FEA8A0ABA680EFA00
:10189C000AFB22EA0B0B374A904260D002F58062B9
:1018AC0090425ED002F5806290425CD002F580627C
:1018BC00904214BF0422032202FA0AF242EA0B02FB
:1018CC00BA609A6819F4801F14BF2A43AA439A601D
:1018DC00DA6819F4001F14BF2A43AA43DA605A6865
:1018EC0019F4003F14BF2A43AA435A601A6819F42A
:1018FC00803F14BF2A43AA431A60013677E7DFF80A
:10190C0078904A450CD014D8A9F580194A4507D0CF
:10191C0009F570294A4503D0A9F580194A4587D1A4
:10192C008A68D2B1012A4FF008040CBF07614761E5
:10193C007EE7DFF848904A45F2D009F58039EDE7AB
:10194C00CC6875E7CC68043472E7CC6808346FE770
:10195C00CC680C346CE700246AE7042468E70022A6
:10196C00AAE70122A8E70222A6E700BF0010024066
:10197C00000401400008014000002210000031105A
:10198C002DE9F74F4FF0040B00224FF0010A4FF0F6
:10199C000F0800EB0B0301932E4B31FA02F402D12A
:1019AC0003B0BDE8F08F0AFA02F70F4049D022F0DD
:1019BC00030404F1804404F5803402F0030CA568A0
:1019CC004FEA8C0C08FA0CF909EA050E224DA842D4
:1019DC0039D005F58065A84237D005F58065A84259
:1019EC0035D005F58065A84214BF0425032505FAFA
:1019FC000CF575456FEA07060FD11D6835401D6063
:101A0C005D6835405D60DD683540DD609D68354062
:101A1C009D60A56825EA0905A560FF2F94BF0746C0
:101A2C00019F4FEA82043D6888BF203C08FA04FC01
:101A3C0025EA0C050BFA04F425433D60C4683440D8
:101A4C00C4600132A9E70025D1E70125CFE70225C3
:101A5C00CDE700BF00040140000801400AB101615C
:101A6C0070470904FBE7C36801EA030221EA03019A
:101A7C0041EA02410161704770B5FFF7A7F90546CD
:101A8C002F4C236843F00103236023689B073BD54D
:101A9C00236841F2883623F0F80343F08003236077
:101AAC00FFF794F9002305466360636813F00C0F8D
:101ABC0032D1244B244A1A60244B1868FFF744F99E
:101ACC00054600283AD1FFF781F90646236823F032
:101ADC0080732360236813F0007323D16360FFF7D6
:101AEC0075F90646236823F410232360236813F446
:101AFC0000331DD1226822F480222260626A42F0F7
:101B0C0080726262A36005E0FFF760F9401B022857
:101B1C00BBD90325284670BDFFF758F9401BB042CE
:101B2C00C3D9F6E7FFF752F9801B0228D2D9F0E7A8
:101B3C00FFF74CF9801B6428D8D9EAE70125E9E7BF
:101B4C00001002401000002000127A001800002043
:101B5C002DE9F341054638B30368DB0710D42B6835
:101B6C009F075ED42B68190700F195802B685A07E4
:101B7C0000F1C180EB69002B40F02C81002029E0A2
:101B8C00904C636803F00C03042B07D0636803F0DC
:101B9C000C03082B0AD16368DE0307D523689C036A
:101BAC00DDD56B68002BDAD1012013E06B68B3F53F
:101BBC00803F12D1236843F480332360FFF706F98A
:101BCC00064623689803CAD4FFF700F9801B6428E3
:101BDC00F7D9032002B0BDE8F0819BB9236823F448
:101BEC0080332360236823F480232360FFF7EEF80F
:101BFC00064623689903B2D5FFF7E8F8801B6428E2
:101C0C00F7D9E6E7B3F5A02F236803D143F480237B
:101C1C002360CFE723F480332360236823F48023ED
:101C2C00CBE7684C636813F00C0F07D0636803F0C4
:101C3C000C03082B10D16368DA030DD423689B07BF
:101C4C0002D52B69012BAFD123686A6923F0F80305
:101C5C0043EAC203236085E72A695B4B6AB1012220
:101C6C001A60FFF7B3F8064623689F07ECD4FFF71A
:101C7C00ADF8801B0228F7D9ABE71A60FFF7A6F87E
:101C8C000646236898077FF56DAFFFF79FF8801B1A
:101C9C000228F6D99DE7AA694A4E4B4BE2B10122C4
:101CAC00C3F88024FFF792F80446736A9B070DD59E
:101CBC004FF4FA52454B1B68B3FBF2F3019300BF90
:101CCC00019B5A1E0192002BF9D14FE7FFF77EF8CA
:101CDC00001B0228E9D97CE7C3F88024FFF776F8CB
:101CEC000446736A9F077FF541AFFFF76FF8001B3F
:101CFC000228F6D96DE7334CE369D80024D40127C8
:101D0C00E36943F08053E361E36903F0805300938C
:101D1C00009B2F4E3368D90518D5EB68012B26D1C3
:101D2C00236A43F001032362FFF750F841F288382D
:101D3C000646236A9B073FD5002F3FF41BAFE36990
:101D4C0023F08053E36115E70027E2E7336843F49F
:101D5C0080733360FFF73AF880463368DA05DCD4D9
:101D6C00FFF734F8A0EB08006428F6D931E7ABB9DB
:101D7C00236A41F2883823F001032362236A23F09B
:101D8C0004032362FFF722F80646236A9807D3D58B
:101D9C00FFF71CF8801B4045F7D91AE7052B236A7F
:101DAC0003D143F004032362BAE723F00103236257
:101DBC00236A23F00403B6E7FFF708F8801B4045BD
:101DCC00B7D906E700100240000042421000002084
:101DDC00007000402A4C626802F00C02082A3ED0C7
:101DEC000022022B274B1A662CD1FEF7EFFF06467A
:101DFC002368990120D42B6AB3F5803F05D1626822
:101E0C00A96822F400320A436260696A62680B4373
:101E1C0022F474121343012263601A4B1A66FEF704
:101E2C00D5FF054623689A013FF5A8AEFEF7CEFF15
:101E3C00401B0228F6D9CCE6FEF7C8FF801B02280F
:101E4C00D6D9C6E6FEF7C2FF054623689B017FF58F
:101E5C0095AEFEF7BBFF401B0228F6D9B9E6012B65
:101E6C003FF4A2AE60682B6A00F480329A427FF491
:101E7C009BAE6B6A00F47010C01A18BF0120A9E663
:101E8C0000100240000042420D4A536803F00C015E
:101E9C00082912D10B48C3F38341DB03405C09D5FD
:101EAC005368094AC3F340435043084AD35CB0FB20
:101EBC00F3F07047064B584370470348704700BF18
:101ECC00001002405C2E000800127A005A2E000806
:101EDC0000093D002DE9F0410D46044610B90120E2
:101EEC00BDE8F081444A136803F007038B4228D302
:101EFC0021688E0730D4CA0743D43F4A136803F0D5
:101F0C000703AB4265D822683C4D12F0040F6CD12C
:101F1C00130706D56B68226923F4605343EAC203A6
:101F2C006B60FFF7B1FF6B68354AC3F30313D35CE7
:101F3C00D840344B1860344B1868FEF705FF00206E
:101F4C00CEE7136823F007030B431360136803F009
:101F5C0007038B42C3D1CBE7284B11F0040F1EBFF4
:101F6C005A6842F4E0625A60080742BF5A6842F469
:101F7C0060525A605A68A06822F0F00202435A601C
:101F8C00B9E762681D4E012A33681AD113F4003F79
:101F9C00A5D0736841F2883823F0030313437360B0
:101FAC00FEF714FF07467368626803F00C03B3EB8B
:101FBC00820FA2D0FEF70AFFC01B4045F3D90320C5
:101FCC008EE7022A02D113F0007FE1E713F0020F33
:101FDC00DEE7136823F007032B431360136803F049
:101FEC000703AB427FF47BAF8DE76B68E16823F4AA
:101FFC00E0630B436B608BE7002002400010024053
:10200C004A2E00081000002018000020044B054A3E
:10201C005B68C3F30223D35C034A1068D840704753
:10202C0000100240422E000810000020044B054A0C
:10203C005B68C3F3C223D35C034A1068D840704773
:10204C0000100240422E000810000020026802F12D
:10205C000C0353E8003F23F490730C3242E8003138
:10206C0002680029F2D102F1140353E8003F23F077
:10207C00010302F1140C4CE800310029F3D1036B7D
:10208C00012B0BD102F10C0353E8003F23F010039A
:10209C0002F10C0C4CE800310029F3D1202380F81C
:1020AC00423000230363704710B504460368C168CF
:1020BC001A6922F440520A431A6182680069D9688D
:1020CC000243606921F4B05121F00C0102430A4330
:1020DC00DA605A69A16922F440720A435A610E4AC5
:1020EC00934215D1FFF7A2FF19234343626820687E
:1020FC009200B3FBF2F36422B3FBF2F102FB113357
:10210C001B013233B3FBF2F303EB0113836010BDFD
:10211C00FFF77CFFE8E700BF00380140F7B5054644
:10212C000C4617461E462A68136834EA030301D18D
:10213C00002021E0701CF7D0FEF748FEC01B864241
:10214C001CD3DEB12B68DA685107ECD5802CEAD0B1
:10215C00402CE8D01A681207E5D5002401941A68BF
:10216C00284601925B680193019BFFF76FFF0823E0
:10217C0001206B6485F8404003B0F0BD0320FBE701
:10218C0010B5044648B390F8413003F0FF021BB978
:10219C0080F84020FEF71EFD2423226884F841308D
:1021AC00D368204623F40053D360FFF77DFF2368E8
:1021BC0000201A6922F490421A615A6922F02A020C
:1021CC005A61DA6842F40052DA602023606484F8C1
:1021DC00413084F84230606310BD0120FCE710B53B
:1021EC000446A0B12423026880F84130D36823F45C
:1021FC000053D360FEF72AFD0020606484F8400091
:10220C0084F8410084F842002063606310BD012013
:10221C00FCE72DE9F843984690F841300446202B12
:10222C000E4617463FD100293FD0002A3DD021232E
:10223C000025456480F84130FEF7C8FDA36881464F
:10224C00B3F5805FA784E78403D123690BB93546C6
:10225C001E46E38C9BB253B943464A464021204666
:10226C00FFF75CFF202350B984F841300AE0434665
:10227C004A4680212046FFF751FF28B12023032036
:10228C0084F84130BDE8F88322684EB935F8023B3A
:10229C00C3F308035360E18C013989B2E184D8E7B8
:1022AC0016F8013BF6E70220ECE70120EAE730B52F
:1022BC001446002C05461A469BB005DA8B230360A6
:1022CC004FF0FF301BB030BD4FF40273ADF80C3043
:1022DC004FF0000319930CBF234604F1FF33029314
:1022EC0005934FF6FF7300910491ADF80E306946DB
:1022FC001E9B00F0ADF9431CBCBF8B232B60002C44
:10230C00E0D00022009B1A70DCE7000007B50093B8
:10231C0013460A46014603480068FFF7C8FF03B09E
:10232C005DF804FB1C00002003460244934200D1DC
:10233C00704703F8011BF9E7014B1868704700BFA1
:10234C001C00002070B500260C4D0D4C641BA41015
:10235C00A64209D100F076FC00260A4D0A4C641BFB
:10236C00A410A64205D170BD55F8043B9847013620
:10237C00EEE755F8043B98470136F2E7742E000857
:10238C00742E0008742E0008782E000870477047D1
:10239C000A44914200F1FF3300D1704710B511F897
:1023AC00014B914203F8014FF9D110BD38B50546E8
:1023BC00002940D051F8043C0C1F002BB8BFE41886
:1023CC0000F0DEF81C4A136833B9636014602846C9
:1023DC00BDE8384000F0DAB8A34208D920682118CB
:1023EC008B4201BF19685B6809182160EDE71A463A
:1023FC005B680BB1A342FAD911685018A0420BD1FB
:10240C0020680144501883421160E0D118685B6861
:10241C00084410605360DAE702D90C232B60D6E72E
:10242C00206821188B4201BF19685B68091821606C
:10243C0063605460CBE738BD9426002070B50F4E16
:10244C000C463168054611B900F0A8FB30602146F6
:10245C00284600F0A3FB431C03D14FF0FF34204669
:10246C0070BDC41C24F00304A042F8D0211A2846E5
:10247C0000F094FB0130F2D1EFE700BF9026002072
:10248C002DE9F843CD1C25F0030508350C2D38BF7C
:10249C000C25002D064601DBA94204D90C23336020
:1024AC000020BDE8F883DFF8D48000F069F8D8F894
:1024BC0000301C4644BB29463046FFF7BFFF431C87
:1024CC00044658D1D8F800402746002F43D1002CA1
:1024DC004BD023683946304604EB030900F05EFB11
:1024EC00814542D1216830466D1A2946FFF7A6FF77
:1024FC0001303AD023682B442360D8F800305A6856
:10250C0062BBC8F800700FE02268521B20D40B2A63
:10251C0017D96119A342256018BF5960636808BFB9
:10252C00C8F8001062514B60304600F02FF804F1EF
:10253C000B00231D20F00700C21A1CBF1B1AA3504E
:10254C00AFE76268A3420CBFC8F800205A60EBE703
:10255C0023466468AEE73C467F68B6E71A465B687C
:10256C00A342FBD100235360DEE70C2330463360DB
:10257C0000F00CF894E70560D6E700BF9426002025
:10258C000148FFF703BF00BF8C2600200148FFF76E
:10259C00FEBE00BF8C2600202DE9F0471F468E683A
:1025AC008246BE420C4690460B682DD8B1F90C20E1
:1025BC0012F4906F26D06569096905EB4505A3EB0C
:1025CC00010905EBD5757B1C4B446D109D4238BF42
:1025DC001D46530527D52946FFF752FF064660B323
:1025EC004A462169FFF7D4FEA38923F4906343F094
:1025FC008003A38126614E4426603E466561A5EBAF
:10260C000905A560BE4200D93E46324641462068C7
:10261C0000F0AAFA0020A3689B1BA3602368334434
:10262C002360BDE8F0872A4600F0D6FA064600285B
:10263C00E0D150462169FFF7B9FE0C23CAF80030EF
:10264C00A3894FF0FF3043F04003A381E9E700007A
:10265C002DE9F04F98468B8907461B060D4614460C
:10266C009DB010D50B6973B94021FFF709FF2860A5
:10267C00286130B90C233B604FF0FF301DB0BDE832
:10268C00F08F40236B610023099320238DF82930B0
:10269C0030234FF00109CDF80C80DFF898818DF8CC
:1026AC002A3023469A4613F8012B0AB1252AF9D170
:1026BC00BAEB040B0BD05B46224629463846FFF793
:1026CC006BFF013000F0A780099A5A4409929AF8DE
:1026DC000030002B00F09F8000234FF0FF32CDE93B
:1026EC0005230AF1010A049307938DF853301A93CA
:1026FC005446052214F8011B4E4800F05FFA049A68
:10270C00D8B9D00644BF20238DF85330110744BFED
:10271C002B238DF853309AF800302A2B15D05446C1
:10272C0000204FF00A0C079A214611F8013B303B70
:10273C00092B4BD9B0B1079214E0A0EB080309FAAE
:10274C0003F31343A2460493D2E7039B191D1B68A2
:10275C000391002BBBBF5B4242F00202079307932D
:10276C00B8BF049223782E2B0AD163782A2B32D14E
:10277C00039B02341A1D1B68039243EAE37305930F
:10278C00DFF8B4A003225046217800F017FA38B1D4
:10279C004022049BA0EB0A008240134301340493B3
:1027AC0014F8011B062225488DF8281000F006FAB3
:1027BC00002836D0224B1BBB039B073323F00703A7
:1027CC0008330393099B334409936AE70C460120B1
:1027DC000CFB0232A8E700234FF00A0C1946013417
:1027EC000593204610F8012B303A092A03D9002B07
:1027FC00C6D00591C4E7044601230CFB0121F0E788
:10280C0003AB00932A4638460E4B04A9AFF3008065
:10281C00421C0646D6D1AB895B063FF52DAF099815
:10282C002CE703AB00932A463846064B04A900F06C
:10283C007DF8EDE70F2E0008152E0008192E000864
:10284C0000000000A52500082DE9F0471646984623
:10285C008A680B6907469342B8BF1346336091F8F8
:10286C0043200C46DDF820900AB101333360236815
:10287C00990642BF336802333360256815F00605AC
:10288C0006D104F1190AE36832689B1AAB422BDCBF
:10289C0094F843302268003B18BF0123920630D4D1
:1028AC004146384604F14302C847013023D023681F
:1028BC00226903F00603042B14BF002533684FF084
:1028CC00000608BFE56804F11A0408BFED1A54F8B5
:1028DC00123C08BF25EAE5759342C4BF9B1AED185C
:1028EC00B5421AD1002008E0012352464146384631
:1028FC00C847013003D14FF0FF30BDE8F0870135F8
:10290C00C1E73020E11881F843005A1C94F84510B7
:10291C002244023382F84310C2E701232246414687
:10292C003846C8470130E6D00136D9E72DE9FF47D4
:10293C000F7E9146782F80460C469A460C9E01F1EC
:10294C00430207D8622F0AD8002F00F0D180582FED
:10295C0000F0B88004F1420684F842703AE0A7F126
:10296C006303152BF6D801A151F823F0D1290008E7
:10297C00E52900086129000861290008612900087F
:10298C0061290008E529000861290008612900086F
:10299C006129000861290008E32A00080F2A0008B1
:1029AC009D2A00086129000861290008052B0008F0
:1029BC00612900080F2A0008612900086129000814
:1029CC00A52A000833681A1D1B68326004F1420600
:1029DC0084F8423001239CE033682068191D316073
:1029EC00060601D51D6803E04506FBD5B3F900507A
:1029FC00002D03DA2D236D4284F843300A23584806
:102A0C0011E021683368080653F8045B02D44906C8
:102A1C0048BFADB26F2F336014BF0A230823504850
:102A2C00002184F843106668002EA66005DB21683F
:102A3C002E4321F0040121604BD01646B5FBF3F177
:102A4C0003FB1157C75D06F8017D2F46BB420D46AF
:102A5C00F4D9082B0BD12368DF0708D523696168EB
:102A6C009942DEBF302306F8013C06F1FF36921B7B
:102A7C0022614B4621464046CDF800A003AAFFF741
:102A8C00E3FE01304AD14FF0FF3004B0BDE8F087CF
:102A9C00236843F0200323607827324884F845707C
:102AAC00236831681F0651F8045B02D45F0648BFE7
:102ABC00ADB23160D90744BF43F0200323601DB190
:102ACC001023ADE72648E9E7236823F020032360B1
:102ADC00F6E71646BDE733682568181D6169306056
:102AEC002E061B6801D5196002E06806FBD519801B
:102AFC00002316462361BCE7336800211A1D32609F
:102B0C001E686268304600F059F808B1801B60609E
:102B1C0063682361002384F84330AAE732464946B0
:102B2C0040462369D0470130ADD023689B0713D4AE
:102B3C00E068039B9842B8BF1846A6E701233246CB
:102B4C0049464046D04701309DD00135E368039992
:102B5C005B1AAB42F2DCEBE7002504F11906F5E752
:102B6C00202E0008312E0008884210B501EB02041B
:102B7C0002D98442234607D8431EA14208D011F83B
:102B8C00012B03F8012FF8E7014602448A4200D1D9
:102B9C0010BD13F8014D02F8014DF7E738B50023CD
:102BAC00054D044608462B60FEF776F8431C02D10F
:102BBC002B6803B1236038BD88260020034610B56E
:102BCC00C9B202449342184601D1002003E00478B4
:102BDC0001338C42F6D110BD2DE9F0410746144665
:102BEC000D4621B91146BDE8F041FFF749BC2AB9A1
:102BFC00FFF7DCFB25462846BDE8F08100F01AF80B
:102C0C008442064602D8B4EB500FF4D8214638461D
:102C1C00FFF736FC804608B94546ECE7B44222463D
:102C2C00294628BF3246FFF7B3FB29463846FFF743
:102C3C00BDFBF1E751F8043C181F002BBCBF0B582F
:102C4C00C0187047F8B500BFF8BC08BC9E4670476A
:0C2C5C00F8B500BFF8BC08BC9E467047ED
:102C6800426F6F746C6F61646572202843414E290E
:102C780020737461727465642E20424C3D25754B37
:102C8800422C204150504030782530386C580D0A7D
:102C980000424C2042415443483D25750D0A0053DB
:102CA8005441525420696E76616C69642070617970
:102CB8006C6F61640D0A005354415254206F6B20AD
:102CC80073697A653D256C750D0A0056616C6964F7
:102CD8002061707020666F756E642E204A756D7065
:102CE800696E672E2E2E0D0A004E6F2076616C6974
:102CF8006420617070206F72207374617274207523
:102D080070646174652E0D0A00444C433C322040C7
:102D1800444154410D0A00494458204D49534D41FE
:102D280054434820676F743D2575206578703D25AC
:102D38007520444C433D25750D0A004E41434B20F8
:102D48002D3E207265646F206964783D25750D0AF3
:102D58000050726F67726573733A20256C7525256C
:102D68000D0A00454E4420696E76616C69642070D6
:102D780061796C6F61640D0A00484541443A0D0A57
:102D88000025303258000D0A5441494C3A0D0A00CA
:102D9800454E44206578705F6372633D3078253016
:102DA800386C582063616C635F73747265616D3D44
:102DB80030782530386C582073697A653D256C75F4
:102DC8000D0A004352432066726F6D20666C617372
:102DD800683A2030782530386C580D0A004F4B205F
:102DE8002D3E206A756D700D0A004641494C3A2007
:102DF80073697A652F6372632F61707020696E76CC
:102E0800616C69640D0A00232D302B2000686C4C1E
:102E1800006566674546470030313233343536370A
:102E2800383941424344454600303132333435362F
:102E3800373839616263646566000000000001028A
:102E4800030400000000000000000102030406075C
:102E58000809010202030405060708090A0B0C0DFC
:042E68000E0F101029
:082E6C00E0D2FF7F010000002D
:042E74003101000820
:042E78000D01000840
:102E7C00FFFFFFFF00400008F4010000010000000C
:102E8C0000127A0001000000100000002000002059
:102E9C000000000050250020B8250020202600202E
:102EAC000000000000000000000000000000000016
:102EBC000000000000000000000000000000000006
:102ECC0000000000000000000000000000000000F6
:0C2EDC00000000000000000000000000EA
:0400000508000CE9FA
:00000001FF
